:1000000017C1000045C1000043C1000041C100000C
:100010003FC100003DC100003BC1000039C10000EC
:1000200037C1000035C1000033C1000031C10000FC
:100030002FC100002DC100002BC1000029C100000C
:1000400027C1000025C1000023C1000021C100001C
:100050009AC300001DC100001BC10000A3C4000022
:1000600017C10000C2C2000097C2000011C1000009
:100070000FC100000DC100000BC1000009C100004C
:1000800007C1000005C1000003C1000001C100005C
:10009000FFC00000FDC00000FBC00000F9C0000070
:1000A000F7C00000F5C00000F3C00000F1C0000080
:1000B000EFC00000EDC00000EBC00000E9C0000090
:1000C000E7C00000E5C00000E3C00000E1C00000A0
:1000D000DFC00000DDC00000DBC00000D9C00000B0
:1000E000D7C000005A035D034C035003540394032C
:1000F000610365036B036F03730379037D0381035E
:10010000940387038B038F03F6096A0A340A1D0AD6
:10011000BA08BA08F109BA08F109BA08F109F109EF
:10012000F109BA08F109F10900000A0B02090C0DE6
:100130000E0807030401000000000000000000009A
:1001400000000000000000000000000000000000AF
:10015000000000001211100000000000000000006C
:10016000000000000000000000000000000000008F
:100170002200250028002B002E003100340002014F
:100180000000050108010B010000210024002700E8
:100190002A002D0030003300010100000401070196
:1001A0000A010505050507050808080802020202FC
:1001B0000A0A080804040404010101010101010103
:1001C0000303030303030303040707070C0C0C0CCE
:1001D0000C0C0C0C020202020606060606060606B7
:1001E0000B0B0B0B0B0B0B0B010210202008081044
:1001F0002040102040800201020108040201010297
:10020000040810204080804020100804020180046F
:1002100002018040201008040201080402010102CA
:100220000408102040800102040810204080080CBF
:1002300011241FBECFEFD1E2DEBFCDBF00E00CBF67
:1002400015E0A0E0B2E0E6E4FAE100E00BBF02C096
:1002500007900D92A231B107D9F727E0A2E1B5E0EE
:1002600001C01D92A531B207E1F711E0C8E1D1E06C
:1002700000E006C021970109802FFE010E94EC0CCE
:10028000C731D10780E00807A9F7D6D30C94210D18
:10029000B7CECF92DF92EF92FF920F931F93CF933F
:1002A000DF936C017A018B01C0E0D0E0CE15DF0551
:1002B00089F0D8016D918D01D601ED91FC910190ED
:1002C000F081E02DC6011995892B11F47E0102C041
:1002D0002196ECCFC701DF91CF911F910F91FF9035
:1002E000EF90DF90CF900895089580E090E008951A
:1002F000FC01538D448D252F30E0842F90E0821B2C
:10030000930B541710F0CF96089501970895FC01B0
:10031000918D828D981761F0828DDF01A80FB11D3C
:100320005D968C91928D9F5F9F73928F90E0089560
:100330008FEF9FEF0895FC01918D828D981731F01A
:10034000828DE80FF11D858D90E008958FEF9FEF6E
:100350000895FC01918D228D892F90E0805C9F4F44
:10036000821B91098F739927089584EB95E0F1DF43
:1003700021E0892B09F420E0822F0895FC01848D6F
:10038000DF01A80FB11DA35ABF4F2C91848D90E0BF
:1003900001968F739927848FA689B7892C93A0899A
:1003A000B1898C9180648C93938D848D981306C051
:1003B0000288F389E02D80818F7D80830895EF92FC
:1003C000FF920F931F93CF93DF93EC0181E0888F0F
:1003D0009B8D8C8D981305C0E889F989808185FDF6
:1003E00023C0F62E0B8D10E00F5F1F4F0F731127E8
:1003F000E02E8C8DE8120BC00FB607FCFACFE8890F
:10040000F989808185FFF5CFCE01B8DFF2CF8B8DE2
:10041000FE01E80FF11DE35AFF4FF0820B8FEA89CE
:10042000FB898081806207C0EE89FF896083E8894B
:10043000F98980818064808381E090E0DF91CF91B1
:100440001F910F91FF90EF900895CF93DF93EC01F0
:10045000888D8823C1F0EA89FB89808185FD05C0EC
:10046000A889B9898C9186FD0EC00FB607FCF5CF1F
:10047000808185FFF2CFA889B9898C9185FFEDCF66
:10048000CE017CDFE8CFDF91CF91089580E090E04E
:10049000892B19F06ADF811125C080E090E0892B5B
:1004A00041F080E090E0892B21F00E940000811152
:1004B0001CC080E090E0892B41F080E090E0892B27
:1004C00021F00E940000811113C080E090E0892B90
:1004D000A1F080E090E0892B81F00E940000811162
:1004E0000AC008950E940000D8CF0E940000E1CF0A
:1004F0000E940000EACF0C9400000895863308F0B3
:10050000865390917B00282F2870977F922B909391
:100510007B008770806480937C0080917A00806487
:1005200080937A0080917A0086FDFCCF80917800DC
:100530002091790090E0922B089587FF0DC09CE0F8
:10054000980F923048F0982F9B7F993F29F0803F79
:1005500008F4807F90E0089580E090E008959C0189
:100560008F7C8038910561F0203D310549F081E0B4
:10057000203E310539F0203C310521F080E008951E
:1005800081E008950895DC01ED91FC910190F081E6
:10059000E02D19940E941D0D1F920F920FB60F921D
:1005A00011240BB60F922F933F934F935F936F934A
:1005B0007F938F939F93AF93BF93EF93FF9384EBBE
:1005C00095E0DCDEFF91EF91BF91AF919F918F910C
:1005D0007F916F915F914F913F912F910F900BBE43
:1005E0000F900FBE0F901F9018951F920F920FB68D
:1005F0000F9211240BB60F922F938F939F93EF932B
:10060000FF93E091C405F091C5058081E091CA0592
:10061000F091CB0582FD12C090818091CD058F5F56
:100620008F732091CE05821751F0E091CD05F0E057
:10063000EC54FA4F958F8093CD0501C08081FF91D6
:10064000EF919F918F912F910F900BBE0F900FBE46
:100650000F901F901895362F90E0FC01E85DFE4F3B
:100660004491FC01E851FE4F2491FC01EE55FE4FF0
:100670009491992309F46BC0442309F455C050E0C8
:10068000FA013197E231F10508F04EC08827EE58A3
:10069000FF4F8F4F0C94EC0C809180008F7707C038
:1006A000809180008F7D03C080918000877F809340
:1006B00080003AC084B58F7702C084B58F7D84BD39
:1006C00033C08091B0008F7703C08091B0008F7DE0
:1006D0008093B00029C0809190008F7707C08091EF
:1006E00090008F7D03C080919000877F8093900061
:1006F0001BC08091A0008F7707C08091A0008F7DE4
:1007000003C08091A000877F8093A0000DC08091DE
:1007100020018F7707C0809120018F7D03C08091D9
:100720002001877F80932001E92FF0E0EE0FFF1F6B
:10073000E259FE4FA591B4918FB7F894EC91311125
:1007400003C020952E2301C02E2B2C938FBF08951C
:100750006D3F71053CF46A3F710554F4683F7105C3
:1007600089F406C09B012E5F31092230310550F417
:10077000DC018D919C91DC01ED91FC910190F08167
:10078000E02D199408951F920F920FB60F92112425
:100790000BB60F922F933F934F935F936F937F937B
:1007A0008F939F93CF93DF93EF93FF9380911205E5
:1007B000909113059093890080938800E0E0F2E027
:1007C000C5E1D5E080E090E074E02991399148815D
:1007D000E981420FE31F4993E993599169915523A8
:1007E00039F44081461710F04FEF06C0442704C08B
:1007F0005A95F50F4081F51B6991469F0024810DA4
:10080000901D7A9511F79093130580931205FF912F
:10081000EF91DF91CF919F918F917F916F915F9138
:100820004F913F912F910F900BBE0F900FBE0F90E5
:100830001F901895CF93DF93FC0180E090E0AA27EA
:10084000BB27A41BB50B9B01082E02C0220F331F30
:100850000A94E2F72227307F57FD07C0042E02C01A
:10086000369527950A94E2F706C00A2E02C0220F99
:10087000331F0A94E2F7C081D1812C2B3D2B3183A9
:1008800020833296049680319105E9F6DF91CF916D
:10089000089590E0FC01E851FE4F2491FC01EE55D3
:1008A000FE4F8491882399F090E0880F991FFC01F6
:1008B000E857FE4FA591B491FC01E259FE4F859196
:1008C00094918FB7F894EC91E22BEC938FBF08953D
:1008D00082958EBD00000DB407FEFDCF8EB5089544
:1008E000EF92FF921F93CF93DF931F92CDB7DEB7A6
:1008F0007C01162F2150203108F04DC080E8E81609
:10090000F1040CF448C0A1EEEA16F104ACF58091B4
:10091000750690917606DC01ED91FC916E2D622BAF
:100920000190F081E02D4983199580917506909191
:100930007606DC01ED91FC91612F6F770190F081DB
:10094000E02D1995E894E4F84981B0ECEB16F10438
:1009500011F18091750690917606DC01ED91FC9184
:10096000642F6F770190F081E02D0F90DF91CF9190
:100970001F91FF90EF901994C701885F9109089724
:1009800050F4B70185E796E00F90DF91CF911F916A
:10099000FF90EF90DDCE0F90DF91CF911F91FF90F0
:1009A000EF9008951F920F920FB60F9211242F937C
:1009B0003F938F939F93AF93BF9380911107909133
:1009C0001207A0911307B09114073091100723E08C
:1009D000230F2D3720F40196A11DB11D05C026E877
:1009E000230F0296A11DB11D2093100780931107BC
:1009F00090931207A0931307B093140780910C07EC
:100A000090910D07A0910E07B0910F070196A11DBF
:100A1000B11D80930C0790930D07A0930E07B09320
:100A20000F07BF91AF919F918F913F912F910F90A1
:100A30000FBE0F901F901895789484B5826084BD86
:100A400084B5816084BD85B5826085BD85B58160D2
:100A500085BD80916E00816080936E001092810050
:100A6000809181008260809381008091810081600B
:100A700080938100809180008160809380008091CC
:100A8000B10084608093B1008091B0008160809358
:100A9000B0008091910082608093910080919100DC
:100AA000816080939100809190008160809390009C
:100AB0008091A10082608093A1008091A10081605B
:100AC0008093A1008091A00081608093A00080911C
:100AD00021018260809321018091210181608093B6
:100AE00021018091200181608093200180917A0012
:100AF000846080937A0080917A00826080937A008B
:100B000080917A00816080937A0080917A00806879
:100B100080937A001092C100E0917506F0917606FC
:100B2000A089B18982E08C93A485B5851C92A685A5
:100B3000B7858FE38C93108EA489B58986E08C935A
:100B4000A289B3898C9180618C93A289B3898C919D
:100B500088608C93A289B3898C9180688C93028879
:100B6000F389E02D80818F7D80831092770610922B
:100B70007906109278061092800610927F061092E5
:100B80007E0610927D068FEF9FEF909382068093F2
:100B90008106909384068093830610920B0710922F
:100BA0008806109287061092860610928906109287
:100BB0008A068091850681708260816080938506B7
:100BC000CFB7F89480911405811120C0E7EDF1E0D2
:100BD0008491EDE1F2E09491E82FF0E0EE0FFF1F39
:100BE000E857FE4FA591B491EC91E92319F461E027
:100BF00085E331DD85E34DDE8CB580618CBD8CB540
:100C000080648CBD84E345DE83E343DE809114057C
:100C10008F5F80931405CFBF8CB580628CBD60E080
:100C20008091B20518DD85E034DE60E085E013DDFB
:100C300089E02FDE8AE02DDE809180008E7F809318
:100C4000800080918000826080938000809181008C
:100C50008860809381008091810080618093810011
:100C600080918100816080938100809181008D7FDF
:100C700080938100809181008B7F8093810080919F
:100C800080008F7B809380008091800080688093BB
:100C90008000809180008F7E809380008091800012
:100CA0008062809380008FEF91E090938700809323
:100CB0008600109289001092880010928B0010928A
:100CC0008A0080916F00816080936F00789480E04B
:100CD00090E027E0289FF001299FF00D1124EB5EA2
:100CE000FA4F1682019688309105A1F780E090E0D6
:100CF00037E02FE7389FF001399FF00D1124EB5EAC
:100D0000FA4F2583019688309105A1F786E3C1DD6E
:100D100087E3BFDD88E3BDDD89E3BBDD8AE3B9DDC1
:100D20008BE3B7DD61E086E396DC61E088E393DC8A
:100D300061E089E390DC61E08AE38DDC61E08BE3D4
:100D40008ADC61E087E387DCD7E0EE24E394FF24CC
:100D5000F39432E0832E40E8C42ED12C212C52E0B3
:100D6000352E62E1462E6AE7562E612C712C85E005
:100D7000C5DB8E3521E09207BCF480E090E0D89F7F
:100D8000F001D99FF00D1124EB5EFA4F1482019609
:100D900088309105A1F784E0B1DB9595879595950D
:100DA000879520E030E021C08D3B92407CF080E0D0
:100DB00090E0D89FF001D99FF00D1124EB5EFA4F1F
:100DC0008482019688309105A1F7E5CF80E090E01C
:100DD000D89FF001D99FF00D1124EB5EFA4FE48209
:100DE000019688309105A1F7D6CFD29FF001D39F0D
:100DF000F00D1124EB5EFA4F85832F5F3F4F2830B3
:100E0000310599F79090770680E1891508F4B4C10F
:100E10008091750690917606DC01ED91FC9100843D
:100E2000F185E02D1995892B09F4A6C180917506ED
:100E300090917606DC01ED91FC910284F385E02D22
:100E400019958C018B7F893F09F496C120917F060B
:100E5000309180062115310509F0A9C000937A066A
:100E6000C09178068C2F69DB7ADB882361F007FD5F
:100E70000AC0C0937A0600937B0681E090E09093CD
:100E8000800680937F06C0917A068C2F56DB813FC7
:100E9000910509F45EC074F5803B910509F45CC0CE
:100EA0006CF48039910509F457C0803A910509F432
:100EB00053C08038910509F0D6C04EC0803D9105E1
:100EC00009F447C02CF4803C910509F442C0CBC022
:100ED000803E910509F440C0803F910509F0C3C0F0
:100EE000D0927E06C0927D061092780620EF209365
:100EF0008B0638C0883F9105B9F044F4833F9105D3
:100F000041F154F1863F910579F0ADC08A3F9105DA
:100F10000CF4A9C08D3F91053CF09C012E5F310976
:100F20002230310508F09FC0909388068093870691
:100F3000109286061092890610928A06F0920B078C
:100F40001092800610927F0610927E0610927D0607
:100F5000EBC022E030E002C023E030E030937E06B8
:100F600020937D0620917F063091800640917D067A
:100F700050917E06415051092417350708F4CDC021
:100F80009093880680938706CF70CF5FC0938606C4
:100F900080917B068093890610928A0610928006C3
:100FA00010927F0610927E0610927D0621C007FFE8
:100FB00044C0C80199278D3F910554F48A3F91059B
:100FC0006CF4873F9105B9F0883F9105B1F506C0F3
:100FD000AC014E5F51094230510578F59093880677
:100FE000809387061092890610928A0610928606D0
:100FF000F0920B0799C080918B06803FA1F5C90143
:101000000196F901EF5AF94F47EF42AFE0EFF0E0F8
:10101000F0938806E09387068093890690938A066A
:1010200010928606F0920B071092800610927F06AF
:1010300010927E0610927D066DC080917A06F901AD
:10104000EF5AF94F803FD1F402AF00917D06109125
:101050007E06C80101972817390708F45EC0C091C1
:101060007A06C03F69F41092800610927F061092B3
:101070007E0610927D06109278067EC001A7E5CF0D
:101080008C2F5BDA5C01909388068093870667DA81
:10109000882331F08C2F8F708F5F8093860602C07B
:1010A0001092860680917B06809389060330110595
:1010B00019F480917C0601C080E080938A0610922A
:1010C000800610927F0610927E0610927D06F092A6
:1010D0000B07F0EBAF16B104D1F06CF430E9A316B6
:1010E000B104A9F080EAA816B10489F0A0E8AA1614
:1010F000B10481F40CC0B0EDAB16B10441F0E0EEE8
:10110000AE16B10421F0F0ECAF16B10419F4C0939F
:1011100078060AC01092780607C02F5F3F4F3093C1
:10112000800620937F0628C08091870690918806CC
:101130008039910529F480918A06882309F46FC2C9
:1011400080918706909188069C01205831092136AC
:10115000310508F069C220918606291509F464C298
:10116000992009F461C2C0E030918506432F417097
:1011700030FDFCC0C111D2C1FDE4AF2EF5E0BF2EA1
:1011800000E010E0CCE0A0E89A2EF50180818823F1
:1011900091F11082F801E359FA4F8081811109C061
:1011A000D09FF001D19FF00D1124EB5EFA4F168213
:1011B00022C06C2FD0D3E92FF0E0EE0FFF1FE050DC
:1011C000FC4FB10102C0759567958A95E2F7808161
:1011D0009181CDD32FEF3FEFDB0106D4A301920124
:1011E000D9D3D09FF001D19FF00D1124EB5EFA4FBF
:1011F0003183208396820F5F1F4FFFEFAF1ABF0A24
:101200000430110509F0C1CF60E08091B10523DA07
:10121000C6010090B30502C0959587950A94E2F740
:1012200057DBE091B305F0E0EE0FFF1FEF55FA4FEB
:1012300080814EDBE091B305F0E0EE0FFF1FEF562B
:10124000FA4F808145DBC6010090B30502C0959539
:1012500087950A94E2F73CDBE091B305F0E0EE0FEE
:10126000FF1FEF55FA4F818133DBE091B305F0E0CA
:10127000EE0FFF1FEF56FA4F81812ADB61E080916C
:10128000B105E9D98091B3058F5F87708093B3056D
:101290001092920510929105109294051092930568
:1012A0001092960510929505109298051092970548
:1012B00010929A051092990510929C0510929B0528
:1012C00010929E0510929D051092A00510929F0508
:1012D0001092A2051092A1051092A4051092A305E8
:1012E0001092A6051092A5051092A8051092A705C8
:1012F0001092AA051092A9051092AC051092AB05A8
:101300001092AE051092AD051092B0051092AF0587
:1013100080911B05882339F040E050E06FE67EE6BF
:1013200081EA95E087DA80912205882339F044E04C
:1013300050E06FE177EF81E995E07CDA8091290553
:10134000882339F048E050E06FE177EF81EA95E0DB
:1013500071DA80913005882339F04CE050E06CE67A
:1013600073EF81E995E066DA91D801CD832F8E7F06
:1013700009F400CFA0918706B0918806CD0180586E
:1013800091098136910508F520918606291519F0F5
:1013900041E0911040E03695832F90E08230910536
:1013A00039F08330910541F0019709F0E3CE06C092
:1013B000442309F4DFCE02C04111DCCE40918A06FD
:1013C00060918906CD018CDAD5CEFD01E05FF1098F
:1013D000E031F10508F0CECE8827EC57FF4F8F4F54
:1013E000FBC2BD0185E796E0B3D9C4CE00918A0661
:1013F00010E0102F002780918906082B0138110575
:1014000010F000E810E0A12CB12CA016B10609F4F0
:10141000B1CE8091750690917606DC01ED91FC913C
:10142000D501AF5AB94F0190F081E02DDA966C9159
:101430001995BFEFAB1ABB0AE8CF109189068091CE
:10144000750690917606DC01ED91FC910190F0819A
:10145000E02D63EF19951F77612F70E0809175067D
:101460009091760690D886CE00918A06B0E80B9FC0
:101470008001112480918906082B80917506909136
:101480007606DC01ED91FC910190F081E02D62EF98
:1014900019958091750690917606DC01ED91FC918D
:1014A000B8016F7777270190F081E02D1995809131
:1014B000750690917606DC01ED91FC91B801660FFE
:1014C000672F661F770B71956F7777270190F081F3
:1014D000E02D22C0109189061770B0E11B9FC0015A
:1014E000112410918A061F70182B80917506909117
:1014F0007606DC01ED91FC910190F081E02D61EF29
:1015000019958091750690917606DC01ED91FC911C
:101510000190F081E02D612F19952CCE80918606E7
:1015200081502091870630918806609189069091BC
:101530008A06843008F020CE33272039310509F09F
:101540004BC091110AC090E0AC01C3E0440F551F9D
:10155000CA95E1F720E030E04DC090E0AC01E3E057
:10156000440F551FEA95E1F720E030E0F901E40F60
:10157000F51FE359FA4F7081711115C0AC0173E08A
:10158000440F551F7A95E1F7420F531FFA01E359B3
:10159000FA4F6083FA01E35BFA4FE082FC01E35704
:1015A000FA4F2083E9CD2F5F3F4F24303105F1F60C
:1015B000FC01E357FA4F2081B3E0880F991FBA95D9
:1015C000E1F7820F911DFC01E359FA4F6083FC01A2
:1015D000E35BFA4FE082D0CD2038310509F4B3CF78
:1015E000992309F4B0CFC8CD2F5F3F4F2430310588
:1015F00009F4C2CDF901E40FF51FE359FA4F7081E8
:101600007613F2CF53E0880F991F5A95E1F7280F10
:10161000391FF901E359FA4F1082F901D9CFD0925D
:101620008806C09287068CCD813F9105B1F5E09187
:101630006106F09162060CC08B3F91050CF0C7C0AB
:10164000833F910509F0A4C0E0916506F09166061C
:10165000309709F18091890619951DC0813D91054A
:101660000CF454C0803E910509F060C0E0915D0625
:10167000F0915E06309779F060918A066F7720E8E6
:10168000629FB0011124809189068F77682B705278
:10169000809186061995C1E067CD823F91050CF0D7
:1016A00061C0803B9105B1F4E0915706F091580676
:1016B00007C08038910579F7E0915106F091520604
:1016C000309749F340918A06609189068091860699
:1016D0001995E1CF813B910584F48039910529F476
:1016E000E0915306F0915406EBCF803A910509F74B
:1016F000E0915506F0915606E3CF803D910509F043
:10170000ADCFE0915B06F0915C0607C0803C91058F
:1017100011F6E0915906F0915A06309709F4BBCFC3
:1017200060918906809186061995B5CF803F910515
:1017300009F0B1CFE0915F06F0916006309709F4AF
:10174000AACF60918A0670E0762F6627809189067D
:10175000682B6138710510F060E870E08BE896E066
:10176000199599CF8A3F910509F066CFE0916B06F4
:10177000F0916C0608C0883F910509F08CCFE0918C
:101780006906F0916A06309709F485CF199583CFE1
:10179000833F9105A4F4E0916306F09164063097CD
:1017A00009F479CF80918A068F7730E8839FC00152
:1017B0001124209189062F77822B19956CCF863FB3
:1017C0009105C9F6E0916706F0916806DCCF8C3F81
:1017D000910529F4E0916F06F0917006D4CF8C3F0B
:1017E00091052CF4E0916D06F0916E06CCCF8E3F02
:1017F000910529F4E0917106F0917206C4CF8F3FF4
:10180000910509F048CFE0917306F0917406BBCFC3
:10181000CF93DF93A4EBB5E013961C921E92129720
:1018200048EE53E060E070E014964D935D936D9345
:101830007C93179784E095E011969C938E9385ECAA
:1018400090E01D969C938E931C9784EC90E01F96DD
:101850009C938E931E9780EC90E051969C938E9370
:10186000509781EC90E053969C938E93529782EC24
:1018700090E055969C938E93549786EC90E0579603
:101880009C938E93569759961C9259975A961C92F0
:101890005A975B961C925B975C961C925C97E1E56D
:1018A000F6E0B5A3A4A316A217A210A615A614A627
:1018B00017A616A68FEF9FEF91AB80AB93AB82ABD1
:1018C00083E08093850615AA17AA16AA10AE11AE5A
:1018D00010920B0780E8ABE8B6E0ED0119928A950B
:1018E000E9F7118210821382128215821482178204
:1018F0001682118610861386128615861486178620
:101900001686118A108A138A128A158A148A178AEF
:10191000168A118E108E138E128E158E148E178EBF
:10192000168E11A210A213A212A2C1E9D5E087E07F
:1019300088A386E089A387E00E94490489A10E94C8
:10194000490461E088A10E942B0361E089A1DF9135
:10195000CF910C942B03991B79E004C0991F961723
:1019600008F0961B881F7A95C9F78095089597FB14
:10197000072E16F4009406D077FD08D03BD007FC64
:1019800005D03EF4909581959F4F0895709561958F
:101990007F4F0895A1E21A2EAA1BBB1BFD010DC0AB
:1019A000AA1FBB1FEE1FFF1FA217B307E407F5070F
:1019B00020F0A21BB30BE40BF50B661F771F881FEB
:1019C000991F1A9469F760957095809590959B0181
:1019D000AC01BD01CF010895EE0FFF1F881F8BBF23
:1019E0000790F691E02D199419D0B7FF0895821B46
:1019F000930B0895AA1BBB1B51E107C0AA1FBB1F75
:101A0000A617B70710F0A61BB70B881F991F5A958A
:101A1000A9F780959095BC01CD010895A29FB001D2
:101A2000B39FC001A39F700D811D1124911DB29F12
:101A3000700D811D1124911D089581E090E0F894AE
:061A400000C0F894FFCF86
:101A4600000102030405060708090A0B0C0D0E0F18
:101A5600101112131415161718191A1B1C1D1E1F08
:101A6600202122232425262728292A2B2C2D2E2FF8
:101A7600303132333435363738393A3B3C3D3E3FE8
:101A8600404142434445464748494A4B4C4D4E4FD8
:101A9600404142434445464748494A4B4C4D4E4FC8
:101AA600606162636465666768696A6B6C6D6E6FB8
:101AB600707172737475767778797A7B7C7D7E7FA8
:101AC600808182838485868788898A8B8C8D8E8F98
:101AD600909192939495969798999A9B9C9D9E9F88
:101AE600A0A1A2A3A4A5A6A7A8A9AAABACADAEAF78
:101AF600B0B1B2B3B4B5B6B7B8B9BABBBCBDBEBF68
:101B0600C0C1C2C3C4C5C6C7C8C9CACBCCCDCECF57
:101B1600D0D1D2D3D4D5D6D7D8D9DADBDCDDDEDF47
:101B2600E0E1E2E3E4E5E6E7E8E9EAEBECEDEEEF37
:101B3600F0F1F2F3F4F5F6F7F8F9FAFBFCFDFEFF27
:101B460000020406080A0C0E10121416181A1C1E9F
:101B560020222426282A2C2E30323436383A3C3E8F
:101B660040424446484A4C4E50525456585A5C5E7F
:101B760060626466686A6C6E70727476787A7C7E6F
:101B860080828486888A8C8E90929496989A9C9E5F
:101B9600A0A2A4A6A8AAACAEB0B2B4B6B8BABCBE4F
:101BA600C0C2C4C6C8CACCCED0D2D4D6D8DADCDE3F
:101BB600E0E2E4E6E8EAECEEF0F2F4F6F8FAFCFE2F
:101BC600FFFDFBF9F7F5F3F1EFEDEBE9E7E5E3E10F
:101BD600DFDDDBD9D7D5D3D1CFCDCBC9C7C5C3C1FF
:101BE600BFBDBBB9B7B5B3B1AFADABA9A7A5A3A1EF
:101BF6009F9D9B99979593918F8D8B8987858381DF
:101C06007F7D7B79777573716F6D6B6967656361CE
:101C16005F5D5B59575553514F4D4B4947454341BE
:101C26003F3D3B39373533312F2D2B2927252321AE
:101C36001F1D1B19171513110F0D0B09070503019E
:101C46002D08A9082D09B9094D0AEA0A900B400C7E
:101C5600FA0CC00D910E6F0F00000000000000008E
:101C6600000000000000000000000000000000006E
:101C7600000000000000000000000000000000005E
:101C8600000000000000000000000000000000004E
:101C9600000000000000000000000000000000003E
:101CA600000000000000000000000000000000002E
:101CB600000000000000000000000000000000001E
:101CC600000000000000000000000000000000000E
:101CD60000000000000000000000000000000000FE
:101CE60000000000000000000000000000000000EE
:101CF60000000000000000000000000000000000DE
:101D060000000000000000000000000000000000CD
:101D160000000000000000000000000000000000BD
:101D260000000000000000000000000000000000AD
:101D3600000000000000000000000000000000009D
:101D460000000000DF01490178012502A901870191
:021D56009B01EF
:00000001FF
